:020000040800F2
:1000000000000220ED400008E13A0008E33A000851
:10001000E53A0008E73A0008E93A00080000000065
:10002000000000000000000000000000EB3A0008A3
:10003000ED3A000800000000EF3A0008F13A00082D
:100040003D4100083D4100083D4100083D41000898
:100050003D4100083D4100083D4100083D41000888
:100060003D4100083D4100083D4100083D41000878
:100070003D4100083D4100083D4100083D41000868
:100080003D4100083D4100083D41000800000000DE
:100090000000000000000000000000003D410008DA
:1000A0003D4100083D4100083D4100083D41000838
:1000B0003D4100083D4100083D4100083D41000828
:1000C0003D4100083D4100083D4100083D41000818
:1000D0003D4100083D4100083D410008000000008E
:1000E0003D4100083D4100083D410008000000007E
:1000F0000000000000000000000000003D4100087A
:10010000000000003D4100083D4100083D4100085D
:1001100000000000000000000000000000000000DF
:100120003D4100083D4100083D4100083D410008B7
:100130003D41000800000000000000000000000039
:10014000000000000000000000000000F93A000874
:100150003D4100083D4100083D4100083D41000887
:100160003D4100083D410008000000000000000083
:10017000000000000000000000000000000000007F
:10018000000000003D4100080000000000000000E9
:080190003D4100083D4100085B
:1001980010B5054C237833B9044B13B10448AFF3B9
:1001A80000800123237010BD84010020000000009E
:1001B8005043000808B5034B1BB103490348AFF38C
:1001C800008008BD0000000088010020504300089E
:1001D80053B94AB9002908BF00281CBF4FF0FF31A6
:1001E8004FF0FF3000F072B9ADF1080C6DE904CEA4
:1001F80000F006F8DDF804E0DDE9022304B07047FA
:100208002DE9F047089E04468846002B4BD18A42C8
:10021800154667D9B2FA82F24AB1C2F1200701FA4B
:1002280002F320FA07F7954047EA030894404FEA9B
:10023800154E230CB8FBFEF71FFA85FC0EFB17883A
:1002480043EA084307FB0CF1994209D9EB1807F177
:10025800FF3080F01B81994240F21881023F2B4405
:100268005B1AA4B2B3FBFEF00EFB103344EA03445E
:1002780000FB0CFCA44509D92C1900F1FF3380F0D0
:100288000781A44540F2048102382C4440EA074023
:10029800A4EB0C0400271EB1D4400023C6E9004398
:1002A8003946BDE8F0878B4209D9002E00F0EB8073
:1002B8000027C6E9000138463946BDE8F087B3FA99
:1002C80083F7002F47D18B4202D3824200F2FA8093
:1002D800841A61EB030301209846002EE0D0C6E99A
:1002E8000048DDE702B9FFDEB2FA82F2002A40F0E8
:1002F8008F80491B4FEA154E1FFA85F80127B1FB7D
:10030800FEFC230C0EFB1C1143EA014308FB0CF115
:10031800994207D9EB180CF1FF3002D2994200F24A
:10032800CD808446591AA3B2B1FBFEF00EFB10141F
:1003380043EA044408FB00F8A04507D92C1900F14A
:10034800FF3302D2A04500F2B6801846A4EB080499
:1003580040EA0C409FE7C7F1200CBB4022FA0CFE94
:100368004EEA030E01FA07F420FA0CF521FA0CF311
:100378004FEA1E482543B3FBF8F92C0C08FB193348
:100388001FFA8EFA44EA034309FB0AF49C4202FA74
:1003980007F200FA07F10BD91EEB030309F1FF304E
:1003A80080F087809C4240F28480A9F1020973445E
:1003B8001B1BADB2B3FBF8F008FB103345EA03444E
:1003C80000FB0AFAA24508D91EEB040400F1FF332A
:1003D8006BD2A24569D90238744440EA0940A0FBAF
:1003E8000289A4EB0A044C45C2464B4654D351D06B
:1003F800002E69D0B1EB0A0564EB030404FA0CFC87
:10040800FD40FC404CEA0505C6E90054002747E7D3
:10041800C2F1200320FA03F7954001FA02F021FA0D
:1004280003F34FEA154E3843010CB3FBFEF71FFAEE
:1004380085F80EFB173341EA034107FB08F38B42AB
:1004480004FA02F407D9691807F1FF3C2FD28B424E
:100458002DD9023F2944CB1A81B2B3FBFEF00EFB23
:10046800103341EA034100FB08F38B4207D96918AE
:1004780000F1FF3C17D28B4215D902382944C91A1A
:1004880040EA07473BE73746304609E70746E7E6CD
:100498001846FBE64145ABD2B8EB020A69EB0E02FF
:1004A80001381346A4E76046E9E7184695E767462A
:1004B800D1E781467CE702382C4447E7ACF1020CCF
:1004C8002B442FE7384608E73746E9E6704700BF70
:1004D80010B504460E4B18784FF47A73B3FBF0F35B
:1004E8000C4A1068B0FBF3F000F0AAF868B90F2CBA
:1004F80001D901200AE0002221464FF0FF3000F028
:100508005DF8034B5C60002000E0012010BD00BFD7
:1005180000000020AC00002008B50B4B1A6842F41C
:1005280000721A601A6842F480621A601A6842F40B
:1005380080721A60032000F02FF80020FFF7C8FF30
:1005480003F0AAFA002008BD003C0240034A1168E3
:10055800034B1B780B441360704700BFB4010020A5
:1005680000000020014B1868704700BFB40100204C
:1005780038B50446FFF7F6FF0546B4F1FF3F02D051
:10058800044B1B781C44FFF7EDFF401BA042FAD335
:1005980038BD00BF00000020074AD36823F4E06399
:1005A8001B041B0C000200F4E060184340F0BF601D
:1005B80040F40030D060704700ED00E030B4174BD5
:1005C800DB68C3F30223C3F10704042C28BF042407
:1005D8001D1D062D18D9033B4FF0FF3505FA04F40D
:1005E80021EA0401994005FA03F322EA03031943B7
:1005F80000280BDB0901C9B200F1604000F5614039
:1006080080F8001330BC70470023E5E700F00F00C6
:100618000901C9B2024B1954F4E700BF00ED00E02C
:1006280014ED00E0002807DB00F01F024009012359
:100638009340024A42F82030704700BF00E100E0D2
:100648000138B0F1807F0AD2064B5860064AF02183
:1006580082F823100020986007221A607047012052
:10066800704700BF10E000E000ED00E000230F2B12
:1006780000F2C580F0B482B039E0042200E0002224
:10068800B2403A4302345E4E46F824205D4A14686C
:10069800EA4302EA04064F6817F4803F01D045EAAE
:1006A8000406584C2660646802EA04064F6817F48A
:1006B800003F01D045EA0406524C6660A46802EA8D
:1006C80004064F6817F4801F01D045EA04064D4C14
:1006D800A660E46822404E6816F4001F01D045EA7F
:1006E8000402484CE26001330F2B00F2858001229E
:1006F8009A400C6804EA0205AA42F4D14C68022C1C
:1007080001D0122C10D1DE08083650F826C003F0AC
:100718000704A7000F24BC402CEA040C0C69BC4059
:1007280044EA0C0440F8264004685F000326BE40F3
:10073800F64306EA040C4C6804F00304BC4044EA9F
:100748000C0404604C6804F1FF3CBCF1010F03D9B0
:10075800112C01D0122C10D1846806EA040CCC6844
:10076800BC4044EA0C048460446824EA02024C68F1
:10077800C4F300149C4014434460C26816408A685D
:10078800BA403243C2604A6812F0805FABD00022A0
:1007980001921D4A546C44F480445464526C02F42F
:1007A80080420192019A9C08A61C154A52F82670AC
:1007B80003F0030296000F22B24027EA0207134A09
:1007C80090423FF45CAF02F5806290420ED002F591
:1007D800806290420CD002F5806290420AD002F505
:1007E800806290423FF449AF072249E7012247E778
:1007F800022245E7032243E702B0F0BC7047704786
:1008080000380140003C014000380240000002402E
:1008180012B909048161704781617047436931EAFF
:10082800030301D0816170470904816170472DE994
:10083800F04782B00768CA00521A930003445A6D01
:100848001B6D9A4257D8B8469B1AC1EBC104A20047
:100858000244526C9A4200D31A460C46064602F1EC
:10086800030A4FEA9A0A16E009F1030A4FEA9A0ABC
:10087800E3001B1B9D003544A96C337C00931FFAD1
:1008880089F3E2B2384601F0B3FBAB6C4B44AB647E
:100898006B6D4B446B6508EB441303F510639B6960
:1008A8009BB2534513D3E3001B1B9A003244516D8E
:1008B800136D99420BD253B15B1AC4EBC4018A0081
:1008C8003244D2F844909945CED39946CCE7E30018
:1008D8001B1B98000644326D736D9A420FD804F0C2
:1008E8000F040121A140D7F8344824EA0104C7F8CD
:1008F8003448002000E0012002B0BDE8F087002065
:10090800FAE7F0B58BB0002800F08A800446056845
:1009180090F8BD3323B3032384F8BD33EB6B13F492
:10092800807F01D100232361206801F013F9254657
:1009380055F8107B6E460FCD0FC60FCD0FC695E844
:10094800030086E80300231D0ECB384601F040F86B
:1009580058B1022384F8BD33012528460BB0F0BDF9
:1009680080F8BC3303F03AF9D5E70021206801F09C
:10097800F7F8002315E0D900C81A820022440120A4
:1009880082F83D0082F83C30A2F84230002082F81C
:100998003F0050649064CA1A9100214408650133ED
:1009A800DBB26568AB42E6D3002315E0D800C11A74
:1009B8008A002244002182F8FD1182F8FC3182F875
:1009C800FF11C2F80412C2F80812C21A900020449B
:1009D800C0F810120133DBB29D42E7D8254655F81E
:1009E800107B6E460FCD0FC60FCD0FC695E80300DE
:1009F80086E80300231D0ECB384601F0F7F80546BC
:100A080020B1022384F8BD330125A6E7002384F82A
:100A18003830012384F8BD33206801F096FC9CE748
:100A280001259AE7026890F8BC33012B19D010B55C
:100A3800012380F8BC33836A012B0AD0044600687E
:100A480001F077FC206801F07FF8002084F8BC03EF
:100A580010BD8369012BF1D0936B43F4803393630A
:100A6800ECE702207047000070B505460E460368A3
:100A7800196C03EB461303F53064A3680269012A75
:100A88000FD0354A914261D113F4004F5AD113F077
:100A9800200F01D02023A360F1B2284603F0E4F828
:100AA80057E013F0080F14D02C4A914205D913F4DB
:100AB800004F02D04FF40043A360284603F0CCF85F
:100AC80005F571720121286801F09CFC0823A360D8
:100AD8003FE013F0200F2ED113F0280F39D11F4A11
:100AE800914202D913F4004F28D1F200921B9300CF
:100AF8002B44D3F804222169C1F31201521AC3F816
:100B08001422D3F80412D3F808220A44C3F808229E
:100B1800F1B2284603F0A8F8DEB9C6EBC606B30062
:100B28002B44D3F81032A3B905F571720121286856
:100B380001F068FC0DE02023A3600AE04FF40043B5
:100B4800A36006E04FF40043A36002E0F1B203F0B3
:100B58008BF8002070BD00BF0A31544F0A30544F43
:100B680038B5044603681D6C03EB411101F530618B
:100B78008A680369012B0DD0124B9D4214D0204680
:100B880003F06AF8104B9D4202D92369012B12D059
:100B9800002038BD0C4B9D42F1D912F4004FEED025
:100BA8004FF400438B60EAE712F4004FE7D04FF4AC
:100BB80000438B60E3E704F571720121206801F0BE
:100BC80021FCE5E70A31544F0A30544F2DE9F84F1C
:100BD80004460568284601F0F5FB08B1BDE8F88F22
:100BE8002F460646206801F0BCFB0028F6D0206896
:100BF80001F0B7FB10F0020F04D02268536903F02C
:100C080002035361206801F0ACFB10F4002F74D18B
:100C1800206801F0A6FB10F4802F40F0C280206805
:100C280001F09FFB0028C0F23481206801F099FB95
:100C380010F4006F0AD0D5F8083813F0010F40F00F
:100C480042812268536903F400635361206801F00C
:100C580088FB10F4805F40F03A81206801F081FB46
:100C680010F4005F40F08D81206801F07AFB10F0ED
:100C7800100F14D02268936923F0100393612E6A31
:100C880006F00F07C6F34343022B00F09281062BB0
:100C980000F0B0812268936943F0100393612068E3
:100CA80001F05FFB10F0080F40F0B681206801F0FA
:100CB80058FB10F4801F40F0B881206801F051FB08
:100CC80010F4001F40F0BB81206801F04AFB10F0CF
:100CD800804F40F0BE81206801F043FB10F0040F04
:100CE8003FF47CAF23685D6815F0040F40F0BA81CB
:100CF800226853682B43536070E7206801F035FB86
:100D08008046B14625E007EB49130122C3F8082BBA
:100D180049462046FFF7A8FE2BE049462046FFF744
:100D28001FFF07EB49130822C3F8082B24E007EB41
:100D380049132022C3F8082B1AF4005F05D007EBEB
:100D480049134FF40052C3F8082B09F101094FEA7F
:100D58005808B8F1000F3FF45BAF18F0010FF4D05A
:100D68005FFA89F1206801F010FB824610F0010F4C
:100D7800C9D11AF0080FD0D11AF0100F04D007EB20
:100D880049131022C3F8082B1AF0200FD4D0236976
:100D9800012BCCD104F571720121206801F032FBDE
:100DA800C5E7206801F0E9FA8046B14631E04FEA2C
:100DB800C902A2EB090293002344596C9A6C0A44B5
:100DC8009A6449E01AF0080F04D007EB4913082287
:100DD800C3F808291AF0100F04D007EB49131022A2
:100DE800C3F808291AF0400F04D007EB4913402232
:100DF800C3F808291AF0020F04D007EB491302229E
:100E0800C3F808291AF0800F3ED109F101094FEA09
:100E18005808B8F1000F3FF402AF18F0010FF4D0F2
:100E28005FFA89FB5946206801F0B8FA824610F04B
:100E3800010FC7D009F00F03012101FA03F2D7F817
:100E4800343823EA0203C7F8343807EB4913C3F8E8
:100E5800081923698B42AAD05946204602F010FF90
:100E68002369012BAED1B9F1000FABD1C9EBC9028F
:100E7800930023441B6D002BA4D104F5717201214A
:100E8800206801F0BFFA9DE749462046FFF7CFFCEE
:100E9800BBE7D5F8043823F00103C5F8043894F803
:100EA800F433012B08D0204602F024FF226853694E
:100EB80003F000435361B8E6002184F8F413204698
:100EC80000F07CFAF2E7204602F0FCFEB9E605F5F0
:100ED8000068D8F8043023F00103C8F80430102162
:100EE800206800F055FE14E007EB46134FF67F31FB
:100EF800C3F80819D3F8002922F40012C3F800290E
:100F0800C3F8081BD3F8002B22F40012C3F8002BF7
:100F180001366368B342E7D8D8F81C3043F00113B0
:100F2800C8F81C30236BEBB1D8F8843043F00B03BE
:100F3800C8F88430D8F8443043F00B03C8F844307C
:100F4800D5F8003823F4FE63C5F8003804F571724B
:100F5800217C206801F056FA2268536903F4805313
:100F680053617AE6D8F8143043F4005343F02B0366
:100F7800C8F81430D8F8103043F00B03C8F8103014
:100F8800DEE7206801F022FA206800F0FFFEE0604A
:100F9800266800F0F9FC227B0146304600F05EFD31
:100FA800204602F07EFE2268536903F40053536121
:100FB8005AE647F6F0731E423FF46CAE4FEAC70993
:100FC800A9EB07034FEA8308A0443609C6F30A02CF
:100FD800D8F80812284601F02DF9C6F30A06D8F801
:100FE80008323344C8F80832D8F814321E44C8F816
:100FF80014624FE6082204F57171284601F01AF9C7
:10100800C6F30A16FB00D91B8A002244D2F8143210
:101018001E44C2F814623DE6204602F03CFE2268F7
:10102800536903F00803536140E60021204602F0AB
:101038006DFE2268536903F4801353613DE6002175
:10104800204602F05DFE2268536903F400135361E1
:101058003AE6204602F060FE2268536903F08043B6
:10106800536138E6204602F05DFE41E690F8BC3355
:10107800012B0DD010B50446012380F8BC3380F84D
:101088003810006801F045F9002084F8BC0310BD51
:1010980002207047F8B511F0800F28D101F00F0633
:1010A800F500AF1BBC00274604F5FC740444043467
:1010B8003E460644002586F8FD5101F00F012170D7
:1010C800A260E370627802B1E180022B1ED090F832
:1010D800BC33012B1DD00546012380F8BC332146C3
:1010E800006800F064FE002085F8BC03F8BD01F03C
:1010F8000F06F500AF1BBC002746383404440434FF
:101108003E460644012586F83D50D6E70023237164
:10111800DDE70220EAE738B511F0800F21D101F0B0
:101128000F05EA00541BA3001C4603F5FC73034497
:10113800043325460544002285F8FD2101F00F01FE
:10114800197090F8BC23012A1AD00446012280F8AD
:10115800BC231946006800F075FE002084F8BC0323
:1011680038BD01F00F04E200151BAB001D463833F3
:10117800034404332C460444012284F83D20DDE76F
:101188000220EDE770B501F00F05EE00711B8C0031
:1011980004F5FC740444211D761BB4000444C4F80F
:1011A8000822C4F810320023C4F8143284F8FD3140
:1011B80084F8FC510369012B06D065B1DAB20068E6
:1011C80000F02AFF002070BDC5EBC506B40004443A
:1011D800C4F80C22F1E7DAB2006800F07BFEF1E710
:1011E80001F00F01C1EBC1018B001844D0F81402C3
:1011F800704770B501F00F05EE00711B8C00383494
:101208000444211D761BB4000444A2642365002312
:101218006365012384F83D3084F83C500369012B51
:1012280006D05DB1DAB2006800F0F6FE002070BDAD
:10123800C5EBC506B4000444E264F2E7DAB200681C
:1012480000F048FEF2E738B501F00F0543689D420B
:1012580036D811F0800F20D1CA00541AA3001C46BA
:1012680003F5FC730344043322460244002182F848
:10127800FD1101229A701D7090F8BC23012A21D01B
:101288000446012280F8BC231946006800F0E6FFF6
:101298007DB1002084F8BC0313E0EA00511B8B00E9
:1012A80019463833034404330144012281F83D20B0
:1012B800DFE704F57172217C206801F0A3F8E8E704
:1012C800012038BD0220FCE710B501F00F04436887
:1012D8009C422CD811F0800F1DD1E3001A1B9100FD
:1012E8000A4601F5FC71014404310244002382F8E6
:1012F800FD3100238B700C7090F8BC33012B18D093
:101308000446012380F8BC33006800F0D4FF0020B5
:1013180084F8BC030CE0E3001A1B91000A4638313C
:10132800014404310244012382F83D30E1E7012001
:1013380010BD0220FCE790F8BC33012B14D010B587
:101348000446012380F8BC3311F0800F06D10068F1
:1013580000F032FC002084F8BC0310BD01F00F013E
:10136800006800F015FCF5E70220704730B4046807
:10137800606A29B10D46A36A00EB134000230CE014
:1013880040EA0240A06212E003F1400104EB81014F
:10139800496800EB11400133DBB2691E8B42F3D37D
:1013A80040EA024005F13F0104EB8101486000205A
:1013B80030BC7047036859620020704770470000CE
:1013C800002800F0BB8170B582B00446036813F0B2
:1013D800010F3BD0A74B9B6803F00C03042B2CD0C8
:1013E800A44B9B6803F00C03082B21D06368B3F56A
:1013F800803F4FD0B3F5A02F52D09E4B1A6822F4ED
:1014080080321A601A6822F480221A606368002BFE
:1014180050D0FFF7A7F80546964B1B6813F4003F1A
:1014280014D1FFF79FF8401B6428F5D903208AE1FF
:10143800904B5B6813F4800FD8D08E4B1B6813F465
:10144800003F03D06368002B00F07A81236813F013
:10145800020F55D0874B9B6813F00C0F3ED0854B7D
:101468009B6803F00C03082B33D0E368002B68D08B
:10147800814B01221A60FFF775F805467D4B1B6802
:1014880013F0020F54D1FFF76DF8401B0228F5D96D
:10149800032058E1774A136843F480331360B5E7B3
:1014A800744B1A6842F480221A601A6842F4803237
:1014B8001A60ABE7FFF756F805466E4B1B6813F446
:1014C800003FC3D0FFF74EF8401B6428F5D903202E
:1014D80039E1684B5B6813F4800FC6D1654B1B6814
:1014E80013F0020F04D0E368012B01D001202AE198
:1014F800604A136823F0F803216943EAC1031360C3
:10150800236813F0080F40D0636963B35B4B012273
:101518001A60FFF727F80546564B5B6F13F0020F6A
:1015280033D1FFF71FF8401B0228F5D903200AE141
:10153800504A136823F0F803216943EAC103136092
:10154800DEE74D4B00221A60FFF70CF80546494BC1
:101558001B6813F0020FD3D0FFF704F8401B0228D2
:10156800F5D90320EFE0454B00221A60FEF7FAFF99
:101578000546404B5B6F13F0020F06D0FEF7F2FFF3
:10158800401B0228F5D90320DDE0236813F0040F7F
:1015980079D0384B1B6C13F0805F33D10023019353
:1015A800344B1A6C42F080521A641B6C03F080535F
:1015B8000193019B0125324B1B6813F4807F23D0D4
:1015C800A368012B34D0052B38D02A4B1A6F22F090
:1015D80001021A671A6F22F004021A67A368002B27
:1015E80036D0FEF7BFFF0646224B1B6F13F0020FE3
:1015F80048D1FEF7B7FF801B41F288339842F3D9F0
:101608000320A0E00025D6E71D4A136843F4807341
:101618001360FEF7A7FF0646194B1B6813F4807F7B
:10162800CED1FEF79FFF801B0228F5D903208AE060
:10163800104A136F43F001031367CFE70D4B1A6F7E
:1016480042F004021A671A6F42F001021A67C5E7EE
:10165800FEF788FF0646074B1B6F13F0020F11D0E9
:10166800FEF780FF801B41F288339842F3D90320AC
:1016780069E000BF0038024000004742800E474240
:1016880000700040E5B9A369002B5BD0304A92682E
:1016980002F00C02082A58D0022B17D02D4B00223A
:1016A8001A60FEF75FFF0446294B1B6813F0007FA2
:1016B80042D0FEF757FF001B0228F5D9032042E06D
:1016C800234A136C23F080531364DCE7214B002278
:1016D8001A60FEF747FF05461D4B1B6813F0007F95
:1016E80006D0FEF73FFF401B0228F5D903202AE069
:1016F800E369226A1343626A43EA8213A26A5208C0
:10170800013A43EA0243E26A43EA0263104A536039
:10171800104B01221A60FEF725FF04460C4B1B688C
:1017280013F0007F06D1FEF71DFF001B0228F5D934
:10173800032008E0002006E0002004E001207047B4
:10174800012000E0002002B070BD0120FBE700BFCF
:101758000038024060004742324B9B6803F00C039C
:10176800042B5CD0082B01D02F4870472DE9F04B93
:101778002C4B5A6802F03F025B6813F4800F2BD0A1
:10178800284B5B68C3F388131E4600275C010025BD
:10179800E41A65EB0705A90141EA9461A001001B61
:1017A80061EB0501CB0043EA5073C400A01943EB79
:1017B80007014B0243EAD05344022046194600234E
:1017C800FEF706FD174B5B68C3F3014301335B006B
:1017D800B0FBF3F0BDE8F08B124B5B68C3F38813E2
:1017E8001E4600275C010025E41A65EB0705A901E0
:1017F80041EA9461A001001B61EB0501CB0043EABB
:101808005073C400A01943EB07018B0243EA9053BD
:101818008402204619460023FEF7DAFCD2E7034883
:10182800704700BF003802400024F40000127A001C
:10183800002800F09D8070B504464F4B1B6803F0EC
:101848000F038B4209D2CBB24B4A1370136803F0D3
:101858000F038B4201D0012070BD236813F0020FE3
:1018680017D013F0040F04D0444A936843F4E053AC
:101878009360236813F0080F04D0404A936843F438
:10188800604393603D4A936823F0F003A0680343E4
:1018980093600D46236813F0010F32D06368012B63
:1018A80021D09A1E012A25D9344A126812F0020F53
:1018B80060D032498A6822F0030213438B60FEF736
:1018C80051FE06462D4B9B6803F00C036268B3EB90
:1018D800820F16D0FEF746FE801B41F288339842ED
:1018E800F0D90320B8E7254A126812F4003FE0D186
:1018F8000120B1E7214A126812F0007FD9D10120F6
:10190800AAE71D4B1B6803F00F03AB4209D9EAB2E3
:10191800194B1A701B6803F00F03AB4201D001206A
:101928009AE7236813F0040F06D0144A936823F447
:10193800E053E1680B439360236813F0080F07D066
:101948000E4A936823F46043216943EAC103936014
:10195800FFF702FF094B9B68C3F30313084AD35CE4
:10196800D840084B18600020FEF7B2FD002073E74E
:101978000120704701206FE7003C02400038024018
:1019880080430008AC000020014B1868704700BF76
:10199800AC000020002301330C4A934211D802699D
:1019A800002AF8DA036943F00103036100230133D5
:1019B800064A934207D8026912F0010FF7D10020B6
:1019C8007047032070470320704700BF400D030095
:1019D80084B010B5044603A880E80E00089B012BCC
:1019E8001FD1A36B23F48033A363E36823F4840338
:1019F80023F04003E360E36823F44013E3600F9BA4
:101A0800012B09D02046FFF7C5FF069B012B1BD0F1
:101A1800BDE8104004B07047E36843F48013E36006
:101A2800F0E7E36843F04003E3602046FFF7B2FFC6
:101A38000C9B23B9A36B43F48033A363E5E7A36B43
:101A480023F48033A363E0E7A36843F00603A360AD
:101A5800A36843F02003A360DAE70000022A0AD053
:101A68000921C26822F47052C260C36843EA812324
:101A7800C360002070472A4B0B442A4A93423FD93F
:101A8800294B0B44294A93423CD9A1F57403A3F589
:101A98001053274A934237D9A1F18373A3F5E7433B
:101AA80002F5C332A032934230D9224B0B44224A6A
:101AB80093422DD9214B0B4402F5922202F57872FC
:101AC800934227D91E4B0B4402F5C32202F520721C
:101AD800934221D9A1F1B773A3F5585302F5B71270
:101AE80002F55872934219D9164B0B4402F512228B
:101AF80002F5F862934201D90621B2E70721B0E75F
:101B08000F21AEE70E21ACE70D21AAE70C21A8E7CB
:101B18000B21A6E70A21A4E70921A2E70821A0E7EB
:101B2800405327FFFF340C00401E1BFF3F420F00AD
:101B38007F4F120060B6E5FE5FE3160000D3CEFECD
:101B4800C05BB3FEE05459FE836843F00103836031
:101B580000207047836823F00103836000207047EA
:101B680008B5C36823F0C043C360012909D069B927
:101B7800C36843F08043C3603220FEF7F9FC0020BD
:101B880008BDC36843F00053C360F5E70120F7E7D9
:101B9800890141F02001016100230133054A934284
:101BA80005D8026912F0200FF7D1002070470320F2
:101BB800704700BF400D0300102303610023013369
:101BC800054A934205D8026912F0100FF7D1002098
:101BD80070470320704700BF400D0300D0F800385D
:101BE8001943C0F8001800207047000084B02DE9A0
:101BF800F041044607A880E80E002546002306E0C9
:101C080003F1400204EB82020021516001330E2BE4
:101C1800F6D9119BF3B9A36B43F40013A363A36B29
:101C280023F40023A363A36B23F48023A36300237B
:101C3800C4F8003E04F50066D4F80038C4F800384B
:101C48000C9B012B14D1099B6BB900212046FFF78F
:101C5800C5FF11E0236823F400132360A36B43F44A
:101C68000023A363E3E701212046FFF7B7FF03E062
:101C780003212046FFF7B2FF10212046FFF788FF17
:101C8800804608B14FF001082046FFF795FF08B1DC
:101C98004FF00108002333617361F3610AE0C3B9AF
:101CA8004FF00060C2F8000900220A614FF67F3247
:101CB8008A6001330799994210D905EB431202F55E
:101CC8001061D2F800090028E9DB0020C2F80009F9
:101CD800EAE74FF09040C2F80009E5E700230AE080
:101CE800BBB14FF09047C2F8007B002202614FF66B
:101CF8007F3282600133994210D905EB431202F515
:101D08003060D2F8007B002FEADB0027C2F8007BA6
:101D1800EBE74FF00067C2F8007BE6E7336923F48E
:101D2800807333610A9B012B1BD00022A2616FF0E4
:101D3800804262611BB9A36943F01003A361A269E1
:101D4800104B1343A3610D9B1BB1A36943F0080318
:101D5800A361119B012B0DD04046BDE8F04104B0B2
:101D68007047094A3263326B42F4803242F0030210
:101D78003263DAE7A36943F0804343F00403A361C5
:101D8800EAE700BF00383C8000018000D0F808383E
:101D980013F0060307D0022B07D0062B01D00F2023
:101DA800704702207047002070470220704770B4C7
:101DB8000B784A78012A22D0D0F81C2803F00F06A5
:101DC8000124B44042EA0442C0F81C2800EB431046
:101DD800D0F8003B13F4004F0ED1D0F8003B8A68CE
:101DE800C2F30A02C97842EA8142134343F080539E
:101DF80043F40043C0F8003B002070BC7047D0F8A3
:101E08001C4803F00F06B24092B22243C0F81C28C7
:101E180000EB4310D0F8002912F4004FECD1D0F8B1
:101E280000298C68C4F30A04C97844EA814444EA66
:101E38008353134343F0805343F40043C0F80039FD
:101E4800DAE7000070B40B784A78012A1FD0D0F87E
:101E58003C5803F00F06012404FA06F625EA064565
:101E6800C0F83C58D0F81C58097801F00F018C4094
:101E780025EA0444C0F81C4800EB4310D0F8002BB6
:101E8800124B1340C0F8003B002070BC7047D0F8DC
:101E98003C6803F00F0402FA04F4A4B226EA04042E
:101EA800C0F83C48D0F81C48097801F00F018A4076
:101EB80092B224EA0202C0F81C2800EB4310D0F8C2
:101EC8000039034A1A40C0F80029DDE70078F3EF2B
:101ED800007833EC70B40B784C78012C26D000EBEA
:101EE800431000F530631C69E40CE4041C611C69B0
:101EF80024F0FF5424F4C0141C614C690CB18C68A4
:101F08004C611C6944F400241C611C698D68C5F38C
:101F180012052C431C61012A65D0D0F8003B43F020
:101F28000443C0F8003B002070BC70474C696CBB90
:101F380000EB4314D4F8105925F0FF5525F4C015CB
:101F4800C4F81059D4F8105945F40025C4F81059AC
:101F5800D4F81059ED0CED04C4F81059012A33D007
:101F680000EB4313D3F8002942F00442C3F80029D8
:101F78004B69002BD7D0D0F83428097801F00F042A
:101F88000121A1400A43C0F83428CCE700EB4314F0
:101F980004F510642569ED0CED042561256925F02B
:101FA800FF5525F4C01525614E698D68AE4200D9EC
:101FB8004D61256945F40025256125694E69C6F3FB
:101FC800120635432561C9E70A691AB100EB4311C6
:101FD800C1F8142900EB4310D0F8002942F004425C
:101FE800C0F800299FE7CA68002A96D05A6194E78A
:101FF80070B49DF80C4064B903339D0807E000EB0A
:10200800023303F5805351F8046B1E600134AC426F
:10201800F5D3002070BC7047F0B583B00B784C78CE
:10202800012C2BD000EB431303F530642569ED0C2C
:10203800ED042561256925F0FF5525F4C0152561B6
:102048004D69002D40F0C58025698E68C6F31206DB
:1020580035432561256945F400252561012A00F0ED
:10206800CD80CA78012A00F0CF80D3F8002B42F047
:102078000442C3F8002B002003B0F0BD4C6984BBB8
:1020880000EB4314D4F8105925F0FF5525F4C0157A
:10209800C4F81059D4F8105945F40025C4F810595B
:1020A800D4F81059ED0CED04C4F81059012A4CD09D
:1020B80000EB4313D3F8004944F00444C3F8004943
:1020C800CC78012C6AD04B69002BD4D0D0F83428B6
:1020D800097801F00F040121A1400A43C0F834280F
:1020E800C9E700EB4314D4F81059ED0CED04C4F81B
:1020F8001059D4F8105925F0FF5525F4C015C4F827
:102108001059D4F810694D698F683D44013DB5FBFD
:10211800F7F5474F07EAC5453543C4F81059D4F8D1
:1021280010594E69C6F312063543C4F8105904F520
:102138001064CD78012DB9D1256925F0C0452561F8
:10214800256945F000552561B0E70A691AB100EB29
:102158004314C4F81429CA78012A08D000EB4313A1
:10216800D3F8002942F00442C3F8002983E7D0F8E5
:10217800082812F4807F08D100EB4311D1F8002918
:1021880042F00052C1F80029E8E700EB4311D1F80A
:10219800002942F08052C1F80029DFE7D0F808484A
:1021A80014F4807F0ED1D3F8004944F00054C3F8EA
:1021B800004914460B46C9681A789B8A0094FFF7B1
:1021C80017FF58E7D3F8004944F08054C3F8004992
:1021D800EFE78E683544013DB5FBF6F52669144FE7
:1021E80007EAC5473E43266127698E68ADB206FBFC
:1021F80005F5C5F312053D4325612FE7CA68002A96
:102208003FF42FAF62612CE7D0F8082812F4807FE2
:1022180006D1D3F8002B42F00052C3F8002B24E774
:10222800D3F8002B42F08052C3F8002B1DE700BF03
:102238000000F81F03329208002393420CD210B416
:1022480000F58054246841F8044B01339342F7D3D6
:1022580008465DF8044B7047084670470B784A7883
:10226800012A14D000EB4310D0F8002B002A06DB1B
:102278002BB1D0F8003B23F08043C0F8003BD0F8E6
:10228800003B43F40013C0F8003B0020704700EB0C
:102298004310D0F80029002A06DB2BB1D0F800390A
:1022A80023F08043C0F80039D0F8003943F4001314
:1022B800C0F80039E9E70B784A78012A0ED000EB1C
:1022C8004310D0F8003B23F40013C0F8003BCB7850
:1022D800023BDBB2012B15D90020704700EB4310FD
:1022E800D0F8003923F40013C0F80039CB78023B4A
:1022F800DBB2012BF0D8D0F8003943F08053C0F896
:102308000039E9E7D0F8003B43F08053C0F8003BC0
:10231800E2E7D0F8003823F4FE63C0F80038D0F8BC
:102328000038090101F4FE610B43C0F800380020B1
:10233800704708B5D0F8043823F00203C0F8043811
:102348000320FEF715F9002008BD08B5D0F80438B9
:1023580043F00203C0F804380320FEF709F900200F
:1023680008BD4269806910407047D0F8183800F5F8
:102378000060C0691840000C7047D0F8183800F5A4
:102388000060C069184080B2704700EB4111D1F875
:10239800082B00F5006040691040704710B4D0F871
:1023A8001048D0F8343801F00F02D340DB01DBB21B
:1023B800234300EB411000F51060806818405DF879
:1023C800044B7047406900F001007047D0F80039AD
:1023D80023F4FF6323F00703C0F8003900F5006316
:1023E8009A6802F00602042A05D05A6842F48072FC
:1023F8005A6000207047D0F8002942F00302C0F864
:102408000029F2E710B4046C154B9C4203D9D0F8AC
:10241800003B002B16DB0024C0F8104BD0F8104B03
:1024280044F40024C0F8104BD0F8104B44F01804C2
:10243800C0F8104BD0F8104B44F0C044C0F8104B13
:10244800012903D000205DF8044B7047C0F8142B15
:10245800D0F8003B43F08023C0F8003BF2E700BF10
:102468000A30544F2023038000487047080000209A
:102478002023038000487047280000202023038081
:1024880000487047480000200A230380004870472E
:102498006800002038B50446037CE3B94FF40073A4
:1024A8000222012101F0A6FC0125C4F858514FF47D
:1024B800007302228121204601F09CFCE5624FF462
:1024C8001B7001F063FEC4F89002A0B1204600F032
:1024D8003EF9002038BD40230222012101F08AFC88
:1024E8000125C4F85851402302228121204601F0D9
:1024F80081FCE562E3E70220ECE738B504460121F8
:1025080001F083FC0025C4F858518121204601F0D0
:102518007CFCE562204600F046F9D4F8900218B138
:1025280001F03CFEC4F89052002038BD70B582B06E
:1025380005460C46D0F890620023ADF806300B78BB
:1025480013F0600236D0202A40F0B4804A78FE2A80
:1025580005D0FF2A1DD000F0C5FE0220ADE04A8854
:102568008AB9CA88012A0ED113F0800F0BD0D0F88F
:1025780094329B699847306001223146284601F021
:10258800ADF9002099E02146284600F0ABFE022074
:1025980093E04A8842B9CA8832B913F0800F03D150
:1025A80000F0F4F8002088E02146284600F09AFE62
:1025B800022082E04B780B2B78D8DFE803F0062F57
:1025C8007777777777777777152390F87432032BB7
:1025D80006D102220DF1060101F080F900206CE01D
:1025E80000F080FE022068E090F87432032B05D1D9
:1025F8000122311D01F072F900205EE000F072FE48
:1026080002205AE090F87432032B03D18B78736060
:10261800002052E000F066FE02204EE0097901F049
:10262800FCFB2179284601F0F0FBA38813F0800F0A
:102638001AD103F00F0303EB83039A002A44002303
:10264800C2F844312B7C53BB4FF4007302220121A2
:10265800284601F0CFFB0123C5F8583121792846D7
:1026680000F04BF9002028E003F00F0303EB83038D
:102678009A002A44002393612B7C4BB94FF40073D2
:1026880002228121284601F0B5FB0123EB62E5E730
:10269800402302228121284601F0ACFBF5E74023C4
:1026A80002220121284601F0A5FBD4E700F01AFE1A
:1026B800022002E000F016FE022002B070BD08B54C
:1026C80000F092F8002008BD08B500F0FDF80020E1
:1026D80008BD09B1C0F894120020704770B51346C0
:1026E800D0F89042D4F814521646954200D2ABB2B4
:1026F800D4F83422921BC4F83422002284F83822F9
:10270800042222720A46812101F0A7FB70BD38B568
:102718000546D0F8904294F8183223B9D4F8143208
:102728000BB1637A3BB18121284601F07EFB637AC5
:10273800022B04D038BD012101F077FBF3E71F23FA
:1027480004F503720121284601F08FFBF2E738B542
:102758000446D0F8905200202872687285F85D020D
:1027680085F85C02D4F894321B689847012120460A
:1027780001F053FB8121204601F04FFB1F2305F593
:1027880003720121204601F070FB38BD08B5D0F86E
:10279800902200231372012151721F2302F5037244
:1027A80001F063FB08BDD0F8903200221A7270471E
:1027B80038B50546D0F890420A4BC4F82C3284F854
:1027C8003812002323720D2304F50B72812101F0C6
:1027D80044FB1F2304F503720121284601F045FB41
:1027E80038BD00BF5553425310B50446D0F8901277
:1027F8000B7A022B06D004D3042B02D80021FFF752
:10280800D7FF10BD01F21B2291F8191200F068FBE6
:102818000028F6DA01212046FFF7CAFFF1E7000099
:1028280038B50546D0F89042D4F81032C4F83032A2
:10283800D4F81432C4F83432012101F0C4FA1F2844
:1028480004D1D4F80C221F4B9A420CD02023052225
:1028580094F81912284600F0F4F802236372284607
:10286800FFF755FF38BD94F819120129EED894F8EE
:102878001A32002BEAD0102BE8D804F21B22284683
:1028880000F02EFB00280BDB237A013BDBB2022B86
:10289800E8D9628982B900212846FFF789FFE1E774
:1028A800237A052B03D02846FFF731FFDAE7012109
:1028B8002846FFF77DFFD5E704F10C012846FFF70E
:1028C8000DFFCFE75553424310B50446D0F8903278
:1028D8001A7A12B1012A03D010BDFFF7A1FFFBE756
:1028E80003F21B2293F8191200F0FAFA0028F3DA1F
:1028F80001212046FFF75CFFEEE710B5D0F89042C3
:10290800637A022B03D011F0800F06D110BD81210C
:1029180001F08BFA00236372F8E7012BF6D001214E
:10292800FFF746FFF2E7000010B4D0F89042537862
:1029380013F0010F0ED00723638105E0013B9BB222
:10294800104AD15CE2181173002BF7D100205DF812
:10295800044B7047D0F89432D86901EBC1018B0061
:1029680018440179053113798B4200D90B466381EC
:1029780004E0013B9BB2C15CE2181173002BF8D153
:10298800E4E700BF78430008D0F8900208234381A9
:1029980005E0013B9BB2044AD15CC2181173002BBD
:1029A800F7D10020704700BF70430008D0F89002AC
:1029B8000823438105E0013B9BB2044AD15CC2185D
:1029C8001173002BF7D10020704700BF684300083F
:1029D80010B4D0F89042002304E0E11800200873F6
:1029E8000133DBB2112BF8D9702323730C23E37462
:1029F80094F85C3294F85D128B420FD003F14701D2
:102A080004EBC1010879A073487A2076097A6176C7
:102A18000133DBB284F85C32042B09D012236381C2
:102A28001379122B00D8638100205DF8044B70479E
:102A3800002384F85C32F1E7D0F890320020588106
:102A48007047D0F8900290F85D3203F1470100EB2F
:102A5800C1010A7100220A720133DBB280F85D32CB
:102A6800042B00D0704780F85D22FBE770B5044660
:102A7800D0F89052D5F814325BB90E46D0F894329B
:102A88009B6808469847034660B900226A81184641
:102A980070BD2023052295F81912FFF7D2FF4FF0D9
:102AA800FF33F4E73A23022231462046FFF7C9FFF5
:102AB80005232B724FF0FF33E9E770B582B0054666
:102AC8000E46D0F89042002304E0E218002111736A
:102AD80001339BB20B2BF8D9D5F894325B680DF112
:102AE80006026946304698470146D8B90823E37379
:102AF800009A531E180E2074C3F307406074C3F382
:102B08000723A374013AE27402232375BDF8063043
:102B1800002262751A0AA275E3750C2363810846C0
:102B280002B070BD3A23022231462846FFF789FFDA
:102B38004FF0FF31F3E770B505460E46D0F89042E6
:102B4800D0F894325B6804F25E2204F518713046BE
:102B58009847C8B90146D4F86022531E180E20734E
:102B6800C3F307406073C3F30723A373013AE27307
:102B7800B4F85E320022227462741A0AA274E374F2
:102B880008236381084670BD3A230222314628464D
:102B9800FFF757FF4FF0FF31F4E710B5D0F8904238
:102BA8001344D4F86042A34201D8002010BD212369
:102BB8000522FFF746FF4FF0FF30F7E72DE9F8430E
:102BC80006468946D0F89042D4F86852B4F85E3286
:102BD80003FB05F5B5F5007F28BF4FF40075D0F865
:102BE8009422176904F10C08B5FBF3F39BB2D4F8EF
:102BF800642241464846B84700281EDBABB242462D
:102C08008121304601F029F9B4F85E32B5FBF3F2C0
:102C1800D4F864321344C4F86432D4F868329B1A86
:102C2800C4F86832D4F83422551BC4F834526BB94E
:102C3800032323720020BDE8F883112304224946A8
:102C48003046FFF7FEFE4FF0FF30F4E70020F2E7D2
:102C5800F8B506460F46D0F89042237A73BB15465E
:102C680094F91832002B31DAD0F894329B68084670
:102C78009847A0BBAB78EA78120442EA03622B7942
:102C880042EA03226B791A43C4F86422E9792B7A61
:102C980043EA0123C4F8683239463046FFF77DFF1E
:102CA80000282FDB02232372D4F81422D4F86812E8
:102CB800B4F85E3203FB01F39A4219D14FF4007362
:102CC800638139463046FFF779FFF8BD2023052296
:102CD80094F81912FFF7B5FE4FF0FF30F5E73A23E5
:102CE800022239463046FFF7ACFE4FF0FF30ECE7E2
:102CF8002023052294F819123046FFF7A2FE4FF060
:102D0800FF30E2E74FF0FF30DFE72DE9F8430646F2
:102D18008846D0F89042D4F86852B4F85E3203FB83
:102D280005F5B5F5007F28BF4FF40075D0F894225B
:102D3800D2F8149004F10C07B5FBF3F39BB2D4F866
:102D4800642239464046C847002823DBB4F85E02AF
:102D5800B5FBF0F1D4F864220A44C4F86422D4F82C
:102D680068325B1AC4F86832D4F83422551BC4F8A8
:102D78003452C3B103FB00F3B3F5007F28BF4FF40F
:102D880000739BB23A460121304601F06EF80020EC
:102D9800BDE8F8830323042241463046FFF751FE7D
:102DA8004FF0FF30F4E700213046FFF701FD002027
:102DB800EEE72DE9F04105460F46D0F89042237A18
:102DC800002B6AD1164694F91832002B40DBD0F854
:102DD80094329B6808469847002842D1D5F8943227
:102DE800DB68384698478046002843D1B378F278A4
:102DF800120442EA0362337942EA032273791A43DE
:102E0800C4F86422F179337A43EA0123C4F86832BA
:102E180039462846FFF7C1FE002842DBD4F868226D
:102E2800B4F85E3203FB02F3D4F814229A422AD192
:102E3800B3F5007F28BF4FF40073012121729BB2C4
:102E480004F10C02284601F010F84046BDE8F08174
:102E58002023052294F81912FFF7F3FD4FF0FF38ED
:102E6800F3E73A23022239462846FFF7EAFD4FF0F6
:102E7800FF38EAE72723022239462846FFF7E1FD13
:102E88004FF0FF38E1E72023052294F8191228466D
:102E9800FFF7D7FD4FF0FF38D7E7FFF736FF80463B
:102EA800D3E74FF0FF38D0E710B5D0F89042537809
:102EB80013F0020F0AD1D4F86832D4F86422FFF76D
:102EC8006CFE002809DB0020608110BD2423052248
:102ED800FFF7B7FD4FF0FF30F7E74FF0FF30F4E7AB
:102EE80008B513785A2B5FD8DFE803F02E5E5E3200
:102EF8005E5E5E5E5E5E5E5E5E5E5E5E5E5E365E12
:102F08005E5E5E5E5E5E423A5E5E3E5E5E5E5E4A4D
:102F18005E4E5E5E525E565E5E5E5E5A5E5E5E5EF1
:102F28005E5E5E5E5E5E5E5E5E5E5E5E5E5E5E5EB9
:102F38005E5E5E5E5E5E5E5E5E5E5E5E5E5E5E5EA9
:102F48005E5E5E5E5E5E4600FFF790FD002008BD97
:102F5800FFF73EFD0020FAE7FFF7E6FC0020F6E762
:102F6800FFF76AFD0020F2E7FFF766FD0020EEE7B5
:102F7800FFF70AFD0020EAE7FFF718FD0020E6E763
:102F8800FFF79BFD0020E2E7FFF7D5FD0020DEE715
:102F9800FFF75EFE0020DAE7FFF70BFF0020D6E719
:102FA800FFF782FF0020D2E720230522FFF749FD23
:102FB8004FF0FF30CBE798B108B50346D0F88C0244
:102FC80010B10020C3F88C0209B1C3F88812184662
:102FD800012380F87432027000F0AAFE002008BDB8
:102FE8000220704719B1C0F88C12002070470220E7
:102FF800704708B500F0F6FE002008BD08B5D0F807
:103008008C3233B11B68984708B9002008BD0220EC
:10301800FCE70220FAE708B5D0F88C325B689847DD
:10302800002008BD38B5044600F52075284600F094
:1030380045F90123C4F86C32B4F88632C4F870320A
:1030480094F8801201F01F03012B0ED03BB1022B24
:1030580010D001F08001204600F0E7FE03E0294689
:10306800204600F0B6FA002038BD2946204600F078
:10307800E4FAF8E72946204600F00FFBF3E738B5F5
:103088000446A1BB1046D4F86C32032B03D0052BA1
:1030980024D0002037E0D4F84C31D4F850219342A2
:1030A8000DD99B1AC4F84C319A4206D99AB20146F6
:1030B800204600F028FC002025E092B2F7E7D4F87B
:1030C8008C321B692BB194F87422032A01D1204653
:1030D8009847204600F01FFC002014E00025C4F8A3
:1030E8006C522946204600F0A0FE28460BE00A460E
:1030F800D0F88C329B693BB190F87412032905D142
:1031080011469847002038BD0220FCE70220FAE764
:1031180010B50446002953D11046D4F86C32022B5E
:103128000CD0042B00D01BB98021204600F07DFE76
:1031380094F87832012B3FD000204DE0236A626A70
:1031480093421DD8E169B1FBF2F302FB13132BB9CB
:103158008A4203D8D4F8703299421FD3D4F88C32FB
:10316800DB682BB194F87422032A01D120469847D2
:103178008021204600F059FE204600F0D7FBD7E713
:103188009A1A226292B20146204600F0B4FB00234C
:103198001A461946204600F068FEC9E70022114683
:1031A800204600F0A8FB0021C4F870120B460A461E
:1031B800204600F05AFEBBE7002084F878020BE0B6
:1031C8000A46D0F88C325B693BB190F87412032937
:1031D80005D111469847002010BD0220FCE70220C7
:1031E800FAE770B5044640230022114600F002FEBB
:1031F8000125C4F844514026C4F8506133460022E2
:103208008021204600F0F6FDA561666284F87452BC
:103218000023C4F86C326360C4F87C32D4F890326E
:103228002BB1D4F88C325B680021204698470020E7
:1032380070BD01740020704790F8743280F87532C0
:10324800042380F874320020704790F8753280F8B3
:1032580074320020704708B590F87432032B01D0FF
:10326800002008BDD0F88C32DB69002BF8D09847D5
:10327800F6E700207047002070470020704708B527
:10328800012280F87422D0F88C2252680179904784
:10329800002008BD002302E00133DBB201300278D0
:1032A800002AF9D11846704708B54B88012B00D081
:1032B80008BDC0F87C3200F02EFBF9E70B780370EC
:1032C8004B7843708B78CA7803EB022343800B79E1
:1032D8004A7903EB022383808B79CA7903EB0223B3
:1032E800C380704710B50446802100F09EFD002180
:1032F800204600F09AFD10BD30B583B005460C4657
:103308004A88130A013B062B00F28480DFE803F0A9
:1033180004162A8282667300D0F888321B680DF181
:103328000601007C9847BDF8062012B1E388002BFF
:1033380074D1E388002B7BD003B030BD037C43B944
:10334800D0F88C329B6A0DF106009847022343702F
:10335800E9E7D0F88C32DB6A0DF1060098470223C2
:103368004370E0E7D2B2052A34D8DFE802F0030B55
:10337800131B232BD0F888325B680DF10601007C03
:103388009847D0E7D0F888329B680DF10601007C99
:103398009847C8E7D0F88832DB680DF10601007C51
:1033A8009847C0E7D0F888321B690DF10601007C08
:1033B8009847B8E7D0F888325B690DF10601007CC0
:1033C8009847B0E7D0F888329B690DF10601007C78
:1033D8009847A8E72146FFF785FFADE7037C33B997
:1033E800D0F88C325B6B0DF1060098479BE72146BD
:1033F800FFF778FFA0E7037C43B9D0F88C321B6B4A
:103408000DF106009847072343708CE72146FFF724
:1034180069FF91E72146FFF765FF8DE79A4228BFCC
:103428001A46ADF806200146284600F057FA80E70C
:10343800284600F070FA7FE738B504468B88F3B960
:10344800CB88E3B94B887F2B19D803F07F0590F818
:103458007432032B0CD080F87652294600F0F5FC24
:10346800204600F058FA35B1022384F8743209E096
:10347800FFF738FF06E0012384F8743202E02046A3
:10348800FFF730FF38BD000038B504460D4689788F
:10349800284B197001290ED890F87432022B0ED0DF
:1034A800032B21D02946FFF71DFF224B1978204610
:1034B800FFF7B1FD02E02946FFF714FF38BD81B1DF
:1034C8004160032380F87432FFF798FD022803D087
:1034D800204600F020FAF1E729462046FFF702FFD0
:1034E800ECE700F018FAE9E789B1436899421DD082
:1034F800D9B2FFF790FD0F4B197861602046FFF7AE
:103508007DFD02280DD0204600F005FAD6E70223FB
:1035180080F874324160FFF77EFD204600F0FBF929
:10352800CCE729462046FFF7DDFEC7E700F0F3F9B0
:10353800C4E700BFA001002008B5CB88012B0BD140
:1035480090F874329BB1022B09D9032B0FD10122B9
:10355800011D00F0C3F901E0FFF7C4FE08BD0146F4
:10356800002341F8083F012200F0B8F9F6E7FFF719
:10357800B9FEF3E708B590F87432013B022B12D874
:10358800CB88022B0CD10123C360D0F87C320BB15D
:103598000323C360022200F10C0100F09FF908BD6B
:1035A800FFF7A0FEFBE7FFF79DFEF8E708B590F8E8
:1035B8007432013B022B09D84B88012B00D008BD7F
:1035C8000023C0F87C3200F0A6F9F8E7FFF78AFE7E
:1035D800F5E708B50B7803F06003202B05D0402BE6
:1035E80003D043B1FFF77EFE03E0D0F88C329B682E
:1035F8009847002008BD4B78092B1BD8DFE803F05B
:1036080011171A141A08051A0E0BFFF775FEF0E7C2
:10361800FFF712FFEDE7FFF737FFEAE7FFF78CFF49
:10362800E7E7FFF7A7FFE4E7FFF73EFEE1E7FFF76D
:10363800BDFFDEE7FFF756FEDBE738B505460C466B
:103648000B7803F06003202B06D0402B04D01BB16D
:10365800FFF748FE002038BD95F87432013B022B75
:1036680016D82379012B0ED8D5F88C329B682146C1
:1036780028469847E388002BECD10028EAD1284651
:1036880000F049F9E6E721462846FFF72BFEE1E777
:1036980021462846FFF726FEDCE738B504468A8827
:1036A8000B7803F06003202B08D0D0B2402B05D054
:1036B8005BB12046FFF716FE002005E0D4F88C32F7
:1036C8009B6820469847002038BD202B05D1D4F8A8
:1036D8008C329B6820469847F6E74B78012B32D00E
:1036E800002B5ED0032B40F0D68094F87432022B66
:1036F80006D0032B16D02046FFF7F4FD0020E3E7A1
:1037080008B1802804D12046FFF7ECFD0020DBE754
:103718000146204600F089FB8021204600F085FB09
:103728000020D1E74B8823B918B1802801D0CB8875
:1037380023B1204600F0EFF80020C5E701462046F7
:1037480000F073FBF5E794F87432022B06D0032BD4
:1037580016D02046FFF7C6FD0020B5E708B180283F
:1037680004D12046FFF7BEFD0020ADE70146204604
:1037780000F05BFB8021204600F057FB0020A3E708
:103788004B88002B40F08C8010F07F0F04D120462E
:1037980000F0C1F8002097E70146204600F04DFBF5
:1037A800F5E794F87432022B06D0032B29D0204673
:1037B800FFF798FD002087E708B1802812D112F0A2
:1037C800800F14D100F07F0000EB8000830003F528
:1037D800A073E11800250D600222204600F07EF853
:1037E800284671E72046FFF77DFD00206CE700F0D2
:1037F8007F0000EB8000830003F1100121440431B5
:10380800E8E752B2002A1EDB00F00F0303EB830344
:103818009D002544D5F844311BB3002A26DB00F06F
:103828007F0202EB8202930003F5A073E51808B14A
:10383800802825D100232B6002222946204600F04B
:103848004DF8002040E700F00F0303EB83039D00D1
:103858002544AB69002BE0D12046FFF743FD00204B
:1038680032E72046FFF73EFD00202DE700F07F02FB
:1038780002EB8202930003F1100525440435D6E7D4
:103888000146204600F088FA10B101232B60D3E7E7
:1038980000232B60D0E72046FFF724FD002013E724
:1038A800002011E7C8B170B50D4616460446FFF76B
:1038B800F1FC013040003080287003236B70022334
:1038C80007E001345A1CD2B2E9540233DBB20021BA
:1038D800A95421780029F4D170BD704710B513465A
:1038E8000222C0F86C22C36103620A46002100F07C
:1038F800B4FA002010BD08B513460A46002100F0AE
:10390800ACFA002008BD08B513460A46002100F0AD
:10391800ACFA002008BD08B50423C0F86C320023B7
:103928001A46194600F099FA002008BD08B5052383
:10393800C0F86C3200231A46194600F096FA0020A7
:1039480008BD000070B588B0002403940494059461
:10395800069407940094224B1A6B42F080021A6373
:103968001A6B02F080020092009A01941A6B42F0DE
:1039780001021A631A6B02F001020192019A029481
:103988001A6B42F008021A631B6B03F008030293D8
:10399800029B144D22464FF470412846FCF738FF2D
:1039A80040F2FF73039303260496059403A90E4877
:1039B800FCF75CFE40F6FF7303930496059403A995
:1039C8002846FCF753FE4FF47043039301230493F6
:1039D8000594069403A92846FCF748FE08B070BD74
:1039E80000380240000C02400000024030B595B09B
:1039F8003022002108A800F0E4FB0024039404947A
:103A080005940694079401941A4B1A6C42F080525C
:103A18001A641B6C03F080530193019B0294164BAC
:103A28001A6842F440421A601B6803F44043029348
:103A3800029B012308934FF48033099302250E95C6
:103A48004FF480030F930423109360221192129570
:103A5800139308A8FDF7B4FC0F230393049505946A
:103A68004FF4805306930794032103A8FDF7E0FE63
:103A780015B030BD003802400070004008B5FCF7B2
:103A88004BFDFFF7B3FF00F0C1FAFFF75BFF00F053
:103A98007BF8FEE77047000000B583B00021009175
:103AA8000C4B5A6C42F480425A645A6C02F48042BD
:103AB8000092009A01911A6C42F080521A641B6CB1
:103AC80003F080530193019B0720FCF765FD03B0C9
:103AD8005DF804FB003802407047FEE7FEE7FEE7AA
:103AE800FEE770477047704708B5FCF72FFD08BD23
:103AF80008B50248FDF76AF808BD00BF5404002065
:103B080008B503460B4A126842B10A4A10680344D2
:103B18006A46934206D8074A136008BD054A064913
:103B28001160F2E700F008FB0C2303604FF0FF3050
:103B3800F3E700BFA401002060E201200F49D1F89B
:103B4800883043F47003C1F888300D4B1A6842F08E
:103B580001021A60002098601A6822F0847222F428
:103B680080321A60074A5A601A6822F480221A6062
:103B7800D8604FF000638B60704700BF00ED00E035
:103B8800003802401030002408B500220F491048C0
:103B9800FFF711FA70B90F490D48FFF723FA60B91A
:103BA8000D490B48FEF795FD50B90948FFF721FA72
:103BB80048B908BDFFF76EFFEDE7FFF76BFFEFE7CA
:103BC800FFF768FFF1E7FFF765FFF2E7E400002081
:103BD800B801002074000020000100200368B3F140
:103BE800A04F00D0704730B589B000250195184C1A
:103BF800236B43F001032363236B03F00103019359
:103C0800019B4FF4C05303930223049305950323A8
:103C180006930A23079303A90E48FCF727FD636B55
:103C280043F0800363630295636C43F480436364E9
:103C3800636C03F480430293029B2A46294643207F
:103C4800FCF7BCFC4320FCF7EDFC09B030BD00BF1D
:103C5800003802400000024008B500F57171D0F844
:103C68000404FFF7DFF908BD08B5C1EBC1029300F2
:103C78000344D3F80822D0F80404FFF700FA08BD7B
:103C880008B5C1EBC102930003449A6CD0F8040450
:103C9800FFF73EFA08BD08B5D0F80404FFF7DBFAD1
:103CA80008BD10B50446C368022B01D0FFF7F2FE29
:103CB8000121D4F80404FFF7BCFAD4F80404FFF790
:103CC80090FA10BD10B50446D0F80404FFF7B4FA12
:103CD8002268D2F8003E43F00103C2F8003E236A8E
:103CE80023B1034A136943F00603136110BD00BFF3
:103CF80000ED00E008B5D0F80404FFF7A6FA08BD07
:103D080008B5D0F80404FFF7B6FA08BD08B5D0F82E
:103D18000404FFF7AEFA08BD08B5D0F80404FFF7AD
:103D2800ACFA08BD08B5D0F80404FFF7A8FA08BD36
:103D380003780BB10020704710B503461548C0F84A
:103D48000434C3F898024FF0A0430360042343608F
:103D58000222C260002303618261C361036243627D
:103D6800C3620363FCF7CDFD80B90A4C802120466D
:103D7800FDF720FB402200212046FDF7F7FA8022BC
:103D880001212046FDF7F2FA002010BDFFF782FE60
:103D9800EBE700BF54040020D0F8983211F0800FF0
:103DA80008D101F07F01C1EBC1018A00134493F8E7
:103DB800FE01704701F07F01C1EBC1018A00134485
:103DC80093F83E00704708B5D0F89802FDF708FA56
:103DD80008BD18B1022803D00220704700207047A0
:103DE8000120704708B5D0F89802FCF71BFEFFF7D2
:103DF800F0FF08BD10B51C4613462246D0F89802BD
:103E0800FDF748F9FFF7E5FF10BD08B5D0F89802AF
:103E1800FDF781F9FFF7DDFF08BD08B5D0F8980276
:103E2800FDF789FAFFF7D5FF08BD08B5D0F8980265
:103E3800FDF709FAFFF7CDFF08BD08B5D0F89802DD
:103E4800FDF742FAFFF7C5FF08BD08B5D0F898029C
:103E5800FDF70CF9FFF7BDFF08BD08B5D0F89802CB
:103E6800FDF7C7F9FFF7B5FF08BD08B5D0F8980208
:103E7800FDF788F9FFF7ADFF08BD000012230B809E
:103E880000487047B000002004230B8000487047AA
:103E9800C40000200023934216D230B40BE037341C
:103EA80001F8134000015C00013400250D55013371
:103EB800DBB2934206D2040F092CF0D8303401F853
:103EC8001340EFE730BC70477047000038B50B4B24
:103ED800186804331C6804331B68C01800D138BD47
:103EE800074D082205F11A01FFF7D4FF042205F156
:103EF8002A012046FFF7CEFFF1E700BF107AFF1F27
:103F0800B000002008B51A230B80FFF7DFFF014837
:103F180008BD00BFC800002008B50A4628B10549F9
:103F28000548FFF7BFFC034808BD02490248FFF7F0
:103F3800B9FCF8E75C0800206044000810B5044CA0
:103F48000A4621460348FFF7ADFC204610BD00BFD6
:103F58005C0800207444000808B50A4628B10549E1
:103F68000548FFF79FFC034808BD02490248FFF7D0
:103F780099FCF8E75C0800208844000808B50A4660
:103F880028B105490548FFF78DFC034808BD0249DB
:103F98000248FFF787FCF8E75C0800209444000813
:103FA80000207047EC230B604FF40073138000204F
:103FB80070470020704700207047002070470000BD
:103FC80008B5064800EB42205A0200F0EFF84FF41B
:103FD80080410348FCF722FC002008BD5C0A002051
:103FE800000C024008B50846064901EB42215A0276
:103FF80000F0DCF84FF480510348FCF70FFC002078
:1040080008BD00BF5C0A0020000C0240F8B5324C25
:104018004FF4EC320021204600F0D3F82F4D05F183
:1040280030072E460FCE20606160A260E3603546FF
:104038001034BE42F5D107CD20606160A2602B88A4
:10404800A381254C552384F8FE31AA2384F8FF3137
:10405800224D286CC4F8000295F8443084F80432E4
:104068002B4653F82B0F5968C4F80004C4F80414FD
:1040780019899B7AA4F8081484F80A34082384F868
:104088000B3448350FCDC4F82004C4F82414C4F800
:104098002824C4F82C3407CDC4F83004C4F83414E8
:1040A800C4F838242B7884F83C340D4D04F5C064EA
:1040B80005F130072E460FCE20606160A260E360F4
:1040C80035461034BE42F5D103CD206061602A88A0
:1040D800AB782281A372F8BD5C0A002098430008DF
:1040E800A4440008DFF834D0002103E00C4B5B58EF
:1040F800435004310B480C4B42189A42F6D30B4AF2
:1041080002E0002342F8043B094B9A42F9D3FFF737
:1041180015FD00F017F8FFF7B1FC7047000002200A
:10412800F0440008000000208401002084010020E1
:1041380060E20120FEE70000014B1868704700BFED
:104148002001002070B50D4E0D4CA41BA4100025B5
:10415800A54209D10B4E0C4C00F0F6F8A41BA41094
:104168000025A54205D170BD56F825309847013580
:10417800EEE756F8253098470135F2E7E84400089D
:10418800E8440008E8440008EC440008024B0146F3
:10419800186800F06DB800BF20010020024B0146EE
:1041A800186800F017B800BF2001002010B5431EA2
:1041B8000A44914200D110BD11F8014B03F8014F98
:1041C800F7E702440346934200D1704703F8011B06
:1041D800F9E7000038B50546002945D051F8043CF8
:1041E8000C1F002BB8BFE41800F0ACF81F4A136886
:1041F800104633B9636014602846BDE8384000F0C3
:10420800A2B8A3420CD921686218934204BF1A6865
:104218005B68636004BF521822600460ECE71346D1
:104228005A680AB1A242FAD919685818A0420BD1A3
:1042380020680144581882421960DDD1106852681C
:104248005A6001441960D7E702D90C232B60D3E7E1
:10425800206821188A4204BF11685268626004BF4E
:10426800091821605C60C7E738BD00BFAC010020B9
:1042780070B5CD1C25F0030508350C2D38BF0C256D
:10428800002D064601DBA94203D90C233360002028
:1042980070BD00F057F8214A1468214691B9204CA6
:1042A80023681BB9304600F03DF8206029463046A7
:1042B80000F038F8431C24D10C233360304600F05A
:1042C80042F8E4E70B685B1B18D40B2B0FD90B6083
:1042D800CD50CC18304600F036F804F10B00231D01
:1042E80020F00700C31AD3D05A42E250D0E78C42DC
:1042F8004B6816BF636013600C46EBE70C464968D1
:10430800CCE7C41C24F00304A04205D0211A30468F
:1043180000F008F80130CFD02560DBE7AC010020C1
:10432800B001002038B5064C002305460846236036
:10433800FFF7E6FB431C02D1236803B12B6038BDAD
:104348005CE2012070477047F8B500BFF8BC08BCB4
:104358009E467047F8B500BFF8BC08BC9E4670473B
:10436800000600000000000000000000000000003F
:10437800000000030080830000000000000000002F
:1043880001020304060708090000000001020304F3
:10439800EBFE904D53444F53352E3000020101007F
:1043A800011000EC00F801003F00FF0000000000D1
:1043B80000000000800029FECAFECA53544D5F5217
:1043C800414D4449534B464154313220202000008E
:1043D800F8FFFFFF0F0000005445585446494C456C
:1043E80054585420000000000000000000000000A5
:1043F800000002003B000000008002021F000000D5
:1044080053544D202020202050726F64756374200F
:104418002020202020202020302E303153544D33AE
:104428003220437562654D58204D61737320537473
:104438006F72616765204465766963652052616DB6
:10444800204469736B202D20646F6E65206279208B
:10445800776567690D0A000053544D3332204D616A
:1044680073732053746F72616765000053544D690C
:1044780063726F656C656374726F6E696373000055
:104488004D534320436F6E66696700004D534320C8
:10449800496E7465726661636500000053544D335C
:1044A8003220437562654D58204D617373205374F3
:1044B8006F72616765204465766963652052616D36
:1044C800204469736B202D20646F6E65206279200B
:0844D800776567690D0A000019
:0844E00028BDFF7F0100000070
:0444E800BD0100080A
:0444EC00990100082A
:1044F000010000001000000009022000010104C0BA
:104500003209040000020806500507058102000276
:10451000000705010200020009022000010104C099
:104520003209040000020806500507058102400018
:10453000000705010240000009072000010104C036
:1045400032090400000208065005070581024000F8
:1045500000070501024000000A06000200000040BA
:10456000010000009D2400080325000835250008EF
:104570000000000000000000C7260008D126000847
:104580000000000000000000000000006D24000892
:104590007924000885240008912400080024F400F0
:1045A000120100020000004083042A5700020102A9
:1045B00003010000040309041A03000000000000C6
:1045C00000000000000000000000000000000000EB
:1045D00000000000853E0008913E0008453F0008AD
:1045E000213F00080D3F0008613F0008853F00089B
:1045F000A93F0008AD3F0008BB3F0008BF3F0008CF
:10460000ED3F0008C93F0008C33F00080044000810
:104610002401002000000000000000000000000055
:10462000000000000000000000000000000000008A
:10463000000000000000000000000000000000007A
:10464000000000000000000000000000000000006A
:10465000000000000000000000000000000000005A
:10466000000000000000000000000000000000004A
:044670000000000046
:04000005080040EDC2
:00000001FF
